:100000000C9434000C943E000C943E000C943E0082
:100010000C943E000C943E000C943E000C943E0068
:100020000C943E000C943E000C943E000C943E0058
:100030000C943E000C943E000C943E000C943E0048
:100040000C943E000C943E000C943E000C943E0038
:100050000C943E000C943E000C943E000C943E0028
:100060000C943E000C943E0011241FBECFEFD8E04C
:10007000DEBFCDBF0E945A000C94D6000C94000045
:1000800084B1866084B9A0E8B0E08C9182608C93E2
:10009000E1E8F0E08081886180838C91806A8C93B4
:1000A0008FE39CE990938700809386008081826033
:1000B000808308950E94400088E795E0909389002E
:1000C0008093880090938B0080938A002FEF33ED0C
:1000D00040E3215030404040E1F700C00000A8E874
:1000E000B0E088EB9BE011969C938E935FEF63EDFD
:1000F00020E3515060402040E1F700C0000028EFAD
:1001000031E111963C932E934FEF53ED60E3415054
:1001100050406040E1F700C00000EAE8F0E0918361
:1001200080834FEF53ED60E3415050406040E1F772
:1001300000C00000318320832FEF33ED40E32150D6
:1001400030404040E1F700C0000011969C938E9330
:100150005FEF63ED20E3515060402040E1F700C0C5
:10016000000028E735E011963C932E934FEF53EDB6
:1001700060E3415050406040E1F700C000009183CF
:1001800080838FEF93ED40E3815090404040E1F752
:1001900000C00000318320835FEF63ED80E35150A6
:1001A00060408040E1F700C0000099CFF894FFCF95
:00000001FF
