S0120000416374697669646164562E7372656333
S11300000C9434000C9419010C9451000C9451007C
S11300100C9451000C9451000C9451000C94510018
S11300200C9451000C9451000C9451000C94510008
S11300300C9451000C9451000C9451000C945100F8
S11300400C9451000C9451000C9451000C945100E8
S11300500C9451000C9451000C9451000C945100D8
S11300600C9451000C94510011241FBECFEFD8E022
S1130070DEBFCDBF11E0A0E0B1E0E2E9FAE002C0EA
S113008005900D92AA3BB107D9F721E0AAEBB1E0A4
S113009001C01D92AB3BB207E1F70E943C010C94F6
S11300A047050C94000080E480937C0087E88093EB
S11300B07A000895ECE7F0E08081807F8083EAE7AE
S11300C0F0E080818064808380917A0086FDFCCF9B
S11300D0809178009091790008958AB18B7F8AB9D4
S11300E08BB184608BB9E9E6F0E080818260808323
S11300F080818E7F80838DB381608DBB0895109243
S1130100B90088E48093B80084E08093BC0008952B
S113011084EA8093BC008091BC008823E4F70895AE
S113012084E98093BC0008958093BB0084E88093A5
S1130130BC008091BC008823E4F708950F931F93BB
S1130140CF93DF93D82FD07FD62B0D2F086020E1DB
S1130150829FC0011124C62FC82B1C2F18600E9437
S1130160880080E70E949400802F0E9494008D2FC5
S11301708C600E949400802F8B7F0E949400812FBA
S11301800E9494008C2F8C600E949400812F8B7F9E
S11301900E9494000E949000DF91CF911F910F91D3
S11301A0089560E00E949E00089561E00E949E0010
S11301B008952FEF80E792E0215080409040E1F7CE
S11301C000C0000082E00E94D10088E20E94D100B9
S11301D08CE00E94D10086E00E94D10081E00E9460
S11301E0D1008FE39FE10197F1F700C0000008956B
S11301F0CF93DF93EC0103C021960E94D500888140
S11302008111FACFDF91CF910895613011F490E814
S113021001C090EC890F81500E94D100089581E0C3
S11302200E94D1008FE39FE10197F1F700C0000025
S113023008951F920F920FB60F9211242F938F934C
S11302409F939091BA0181E0911180E08093BA016B
S11302502FEF82E597E0215080409040E1F700C005
S113026000008CB381608CBB9F918F912F910F9074
S11302700FBE0F901F901895CF93DF93CDB7DEB7C5
S1130280A8970FB6F894DEBF0FBECDBF60E875E245
S113029080E090E00E94030280E091E00E941F024F
S11302A00E9453000E946D0078940E947F000E9477
S11302B0D9000E940F0161E081E00E9405018BE1F9
S11302C091E00E94F8002FEF83ED90E321508040ED
S11302D09040E1F700C000000E940F018091BA0134
S11302E08823F1F061E081E00E9405018AE291E057
S11302F00E94F80062E081E00E9405018BE391E036
S11303000E94F8008CE491E00E941F022FEF89E61E
S113031098E1215080409040E1F700C00000DECF1A
S11303200E945A00B82EA92E282F392FA8E8B3E12D
S11303300E944E026B017C012FEF33E040E050E05D
S11303400E942C0229013A01C701B60128E13CE9C7
S11303504FE050E00E942C02E22EC301B20128EECD
S113036033E040E050E00E942C022AE030E040E01C
S113037050E00E942C02C22E61E081E00E9405013F
S1130380AF92BF9283E791E09F938F938E010F5FAB
S11303901F4F1F930F930E945D02C8010E94F80033
S11303A062E081E00E9405011F92CF921F92EF92BA
S11303B083E891E09F938F931F930F930E945D02B4
S11303C0C8010E94F8001F92CF921F92EF92AF9241
S11303D0BF9286E991E09F938F931F930F930E949E
S11303E05D02C8010E941F022FEF89E698E12150A7
S11303F080409040E1F700C000000FB6F894DEBFE3
S11304000FBECDBF6BCF9B01AC0160E472E48FE003
S113041090E00E942C02215031093093C5002093B2
S1130420C40088E18093C10086E08093C2000895EF
S11304309091C00095FFFCCF8093C6000895CF93A0
S1130440DF93EC0103C021960E9418028881811178
S1130450FACFDF91CF910895A1E21A2EAA1BBB1BFC
S1130460FD010DC0AA1FBB1FEE1FFF1FA217B3077C
S1130470E407F50720F0A21BB30BE40BF50B661F92
S1130480771F881F991F1A9469F760957095809556
S113049090959B01AC01BD01CF010895A29FB001CD
S11304A0B39FC001A39F700D811D1124911DB29FA4
S11304B0700D811D1124911D0895AEE0B0E0E3E6B6
S11304C0F2E00C941E050D891E8986E08C831A8344
S11304D009838FEF9FE79E838D83AE01475E5F4F55
S11304E06F89788DCE0101960E947F02EF81F88595
S11304F0E00FF11F10822E96E4E00C943A05ABE075
S1130500B0E0E5E8F2E00C9410056C017B018A018F
S1130510FC0117821682838181FFCCC1CE01019632
S11305203C01F6019381F70193FD859193FF81913D
S11305307F01882309F4BAC1853239F493FD85918A
S113054093FF81917F01853229F4B60190E00E94E6
S11305507604E7CF912C212C312CFFE1F315D8F050
S11305608B3279F038F4803279F08332A1F4232D80
S113057020611DC08D3261F0803369F4232D216028
S113058016C0832D8260382EE32DE4603E2E2AC0EF
S1130590F32DF8601DC037FC2DC020ED280F2A3044
S11305A040F08E32B9F436FC81C1232D2064322E02
S11305B019C036FE06C08AE0989E200D1124922EA2
S11305C011C0EAE02E9E200D1124222EF32DF0629C
S11305D03F2E08C08C3621F4832D8068382E02C04B
S11305E0883641F4F70193FD859193FF81917F0152
S11305F08111B3CF982F9F7D9554933028F40C5FCD
S11306001F4F9FE399830DC0833631F0833771F018
S1130610833509F059C021C0F801808189830E5FB8
S11306201F4F88248394912C530113C02801F2E0B6
S11306304F0E511CF801A080B18036FE03C0692D15
S113064070E002C06FEF7FEFC5010E946B044C01A4
S11306508201F32DFF773F2E16C0280122E0420EBF
S1130660511CF801A080B18036FE03C0692D70E0F2
S113067002C06FEF7FEFC5010E9460044C01F32DAF
S1130680F0683F2E820133FC1BC0822D90E0881657
S11306909906B0F4B60180E290E00E9476042A94B0
S11306A0F4CFF50137FC859137FE81915F01B601E6
S11306B090E00E94760421102A9421E0821A910885
S11306C08114910471F7E8C0843611F0893641F53C
S11306D0F80137FE07C060817181828193810C5FCC
S11306E01F4F08C060817181072E000C880B990B85
S11306F00E5F1F4FF32DFF763F2E97FF09C0909595
S11307008095709561957F4F8F4F9F4FF0683F2E76
S11307102AE030E0A3010E94B204882E861845C066
S1130720853731F4232D2F7EB22E2AE030E025C008
S1130730932D997FB92E8F36C1F018F4883579F04E
S1130740B5C0803719F0883721F0B0C0E92FE061D7
S1130750BE2EB4FE0DC0FB2DF460BF2E09C034FEC6
S11307600AC0292F2660B22E06C028E030E005C05A
S113077020E130E002C020E132E0F801B7FE07C01A
S113078060817181828193810C5F1F4F06C06081FB
S1130790718180E090E00E5F1F4FA3010E94B204BC
S11307A0882E8618FB2DFF773F2E36FE0DC0232D95
S11307B02E7FA22E891458F434FE0BC032FC09C0DB
S11307C0832D8E7EA82E05C0B82CA32C03C0B82C74
S11307D001C0B92CA4FE0FC0FE01E80DF11D8081FB
S11307E0803321F49A2D997EA92E09C0A2FE06C059
S11307F0B394B39404C08A2D867809F0B394A3FC0F
S113080011C0A0FE06C0B21488F4280C922C9B18C8
S11308100EC0B21460F4B60180E290E00E94760447
S1130820B394F7CFB21418F42B1802C0982C212CCF
S1130830A4FE10C0B60180E390E00E947604A2FEFC
S113084017C0A1FC03C088E790E002C088E590E0EF
S1130850B6010CC08A2D867859F0A1FE02C08BE245
S113086001C080E2A7FC8DE2B60190E00E9476040C
S1130870891438F4B60180E390E00E9476049A94D7
S1130880F7CF8A94F301E80DF11D8081B60190E061
S11308900E9476048110F5CF222009F442CEB601DD
S11308A080E290E00E9476042A94F6CFF6018681D5
S11308B0978102C08FEF9FEF2B96E2E10C942C05F9
S11308C0FC010590615070400110D8F78095909517
S11308D08E0F9F1F0895FC0161507040019001101C
S11308E0D8F7809590958E0F9F1F08950F931F93AF
S11308F0CF93DF93FB01238121FD03C08FEF9FEF93
S11309002CC022FF16C046815781248135814217AD
S1130910530744F4A081B1819D012F5F3F4F318380
S113092020838C93268137812F5F3F4F3783268323
S113093014C08B01EC01FB010084F185E02D0995C5
S1130940892BE1F6D80116968D919C911797019603
S113095017969C938E931697CE01DF91CF911F919A
S11309600F910895FA01AA27283051F1203181F11D
S1130970E8946F936E7F6E5F7F4F8F4F9F4FAF4FA3
S1130980B1E03ED0B4E03CD0670F781F891F9A1FB6
S1130990A11D680F791F8A1F911DA11D6A0F711D6A
S11309A0811D911DA11D20D009F468943F912AE076
S11309B0269F11243019305D3193DEF6CF0108955E
S11309C0462F4770405D4193B3E00FD0C9F7F6CF8F
S11309D0462F4F70405D4A3318F0495D31FD405257
S11309E0419302D0A9F7EACFB4E0A69597958795ED
S11309F077956795BA95C9F70097610571050895CC
S1130A009B01AC010A2E0694579547953795279577
S1130A10BA95C9F7620F731F841F951FA01D08950F
S1130A202F923F924F925F926F927F928F929F92FA
S1130A30AF92BF92CF92DF92EF92FF920F931F93E8
S1130A40CF93DF93CDB7DEB7CA1BDB0B0FB6F89499
S1130A50DEBF0FBECDBF09942A88398848885F84D9
S1130A606E847D848C849B84AA84B984C884DF804A
S1130A70EE80FD800C811B81AA81B981CE0FD11D2E
S1130A800FB6F894DEBF0FBECDBFED010895F89404
S1050A90FFCF92
S1130A922D2D2D2053697374656D6120496E696330
S1130AA26961646F202D2D2D0D0A005369737465DD
S1130AB26D612041637469766F00212120414C45A8
S1130AC252544120212120202020005349535445CF
S1130AD24D4120444554454E49444F00414C4552F2
S1130AE254413A205061726F20646520656D6572CD
S1130AF267656E63696120616374697661646F2EF0
S1130B020D0A004144433A20253464202020202049
S1130B12202000566F6C743A2025642E25303264EE
S1130B222056202020004C6563747572613A20259A
S1130B3264207C20566F6C74616A653A2025642EA9
S10D0B422530326420560D0A00002D
S9030000FC
