S01300004163746976696461645F342E73726563F5
S11300000C9434000C9451000C94C4020C945100D0
S11300100C9451000C9451000C9451000C94560211
S11300200C9451000C9451000C9451000C94510008
S11300300C9451000C9451000C9451000C945100F8
S11300400C9451000C9451000C9451000C945100E8
S11300500C9451000C9451000C9451000C945100D8
S11300600C9451000C94510011241FBECFEFD8E022
S1130070DEBFCDBF11E0A0E0B1E0E4E4F9E002C0EE
S113008005900D92A634B107D9F721E0A6E4B1E0BA
S113009001C01D92A135B207E1F70E9428040C9417
S11300A0A0040C940000EF92FF920F931F93CF9340
S11300B0DF93CDB7DEB72C970FB6F894DEBF0FBE33
S11300C0CDBF7A01022F222309F468C0611571059E
S11300D081059105F1F4223028F080E3FA01808350
S11300E011825CC0FA01108259C02AE030E040E07D
S11300F050E00E945B04E1E0F0E0EC0FFD1FE10F33
S1130100F11D605D6083622F732F842F952F1F5F15
S113011001C010E0611571058105910511F01C30D5
S113012020F3812F90E00196202F30E02817390723
S113013064F52FEF200F80E013C0482F50E0D70163
S1130140A40FB51FE22FF0E03197E41BF50B41E05B
S113015050E04C0F5D1FE40FF51F90819C938F5F5F
S1130160821758F3F701E20FF11D108217C0D7016F
S1130170A80FB11DE1E0F0E0EC0FFD1FE90FF11D48
S113018020812C93192F8F5F01C080E09FEF910F86
S11301901111EDCFF701E80FF11D10822C960FB667
S11301A0F894DEBF0FBECDBFDF91CF911F910F91A9
S11301B0FF90EF9008950F931F93CF93DF93CDB7E4
S11301C0DEB766970FB6F894DEBF0FBECDBF8C01C5
S11301D00E94CA0360E080E00E94C00383E091E0D3
S11301E00E94D40361E080E00E94C003C8016AE079
S11301F070E00E9447049C01CB018901332324F45D
S113020000271127021B130B009729F480E389832D
S113021081E090E03DC0992334F488279927861B18
S1130220970B31E001C030E020E00FC06AE070E0DD
S11302300E944704E1E1F0E0EC0FFD1FE20FF11D25
S1130240805D8083862F972F2F5F1816190614F46C
S1130250263060F3332329F08DE2898381E090E036
S113026013C080E090E010C0E1E1F0E0EC0FFD1F6E
S1130270E30FF11D2081E1E0F0E0EC0FFD1FE80F3A
S1130280F91F2083232F01963FEF320F2111ECCF6A
S1130290DC011196E1E0F0E0EC0FFD1FE80FF91F1F
S11302A02EE22083FC01329621E030E02C0F3D1F2A
S11302B0A20FB31F005D0C930396E20FF31F23E418
S11302C02083E1E0F0E0EC0FFD1FE80FF91F10823E
S11302D0CE0101960E94D40366960FB6F894DEBF51
S11302E00FBECDBFDF91CF911F910F910895CF9392
S11302F0C82F0E94CA0360E080E00E94C003C1309E
S113030029F480E191E00E94D40304C08FE191E0DC
S11303100E94D40361E080E00E94C0038FE291E078
S11303200E94D403CF910895CF92DF92EF92FF926F
S1130330CF93DF93CDB7DEB72C970FB6F894DEBF1B
S11303400FBECDBFF894C0904D01D0904E01E09007
S11303504F01F090500178940E94CA0360E080E05D
S11303600E94C0038CE391E00E94D40361E080E02A
S11303700E94C0032CE0AE014F5F5F4FC701B6017E
S11303800E945300CE0101960E94D4032C960FB60E
S1130390F894DEBF0FBECDBFDF91CF91FF90EF90F9
S11303A0DF90CF90089510924D0110924E0110925B
S11303B04F011092500110924C0110924B01109277
S11303C04A0181E080930001109249011092480192
S11303D01092470110924601E0EBF0E080818260C8
S11303E0808389EF8093B300E0E7F0E0808182604E
S11303F08083E9E6F0E080818B7F80838081886060
S113040080838DB382608DBB0895E1EBF0E0808141
S1130410887F80838081856080837894089580912B
S113042000018823D9F080914C01813039F018F013
S1130430823059F00FC00E9494010EC080914A018D
S113044090914B010E94DB0007C0809146010E94FD
S1130450770102C00E9494011092000108959093C4
S11304604B0180934A018B3F910534F081E08093E6
S11304704C0180930001089580914C01813021F456
S113048010924C01809300010895813071F480939F
S1130490460182E080934C0182E390E0909348010E
S11304A08093470181E08093000108951F920F9289
S11304B00FB60F9211242F938F939F93AF93BF93F3
S11304C0809149018F5F8093490180914901823372
S11304D008F450C01092490180914C0181112CC044
S11304E080914D0190914E01A0914F01B091500126
S11304F00196A11DB11D80934D0190934E01A093CF
S11305004F01B093500180914D0190914E01A09103
S11305104F01B0915001813A9648A140B10540F095
S113052010924D0110924E0110924F011092500101
S113053081E0809300011EC080914C018230D1F48F
S11305408091470190914801892BA1F08091470146
S113055090914801019790934801809347018091BD
S1130560470190914801892B29F410924C0181E0B4
S113057080930001BF91AF919F918F912F910F9024
S11305800FBE0F901F9018951F920F920FB60F92E7
S113059011242F933F934F935F936F937F938F9384
S11305A09F93AF93BF93EF93FF9381E00E94450223
S11305B0FF91EF91BF91AF919F918F917F916F9137
S11305C05F914F913F912F910F900FBE0F901F900D
S11305D018951092B90084E18093B80084E0809368
S11305E0BC00089584EA8093BC008091BC008823F9
S11305F0E4F7089584E98093BC008FE99FE00197B4
S1130600F1F700C0000008958093BB0084EC809350
S1130610BC008091BC008823E4F708950E94F20294
S113062080E70E9404038FEF0E9404032FEF89EFF9
S113063090E0215080409040E1F700C0000084E346
S11306400E94040380E30E9404038FE39CE9019762
S1130650F1F700C0000084E30E94040380E30E94D9
S113066004038FE99FE00197F1F700C0000084E3E1
S11306700E94040380E30E9404038FE99FE0019732
S1130680F1F700C0000084E20E94040380E20E94AB
S113069004038FE99FE00197F1F700C000000E9476
S11306A0FA020895CF93DF93C82F0E94F20280E7E5
S11306B00E940403DC2FD07F8D2F8C600E940403E2
S11306C08D2F88600E94040380E1C89FE0011124FB
S11306D08C2F8C600E9404038C2F0E9404030E94C0
S11306E0FA028FE39FE10197F1F700C000008FE366
S11306F09FE10197F1F700C00000DF91CF910895C9
S11307000E94E9020E940E038CE20E9452038CE0D4
S11307100E94520386E00E94520380E80E94520322
S11307200895CF93DF93C82F0E94F20280E70E94BE
S11307300403DC2FD07F8D2F8D600E9404038D2F46
S113074089600E94040380E1C89FE00111248C2F7A
S11307508D600E9404038C2F89600E9404030E9410
S1130760FA028FE39FE10197F1F700C000008FE3E5
S11307709FE10197F1F700C00000DF91CF91089548
S1130780E62FF0E0E050FF4F9081890F81580E94DE
S11307905203089581E00E9452038FE39FE1019781
S11307A0F1F700C0000008950F931F93CF93DF93D8
S11307B08C01C0E0D0E003C00E9491032196F801AF
S11307C0EC0FFD1F80818111F7CFDF91CF911F9135
S11307D00F910895ECE7F0E01082808180648083BB
S11307E08081807F8083EAE7F0E0108280818068E6
S11307F080838081876080830895ECE7F0E08081C6
S1130800807F8083EAE7F0E0808180648083809148
S11308107A0086FDFCCF2091780030917900A8E819
S1130820B3E10E947D0461507E4F8F4F9F4F2FEFA5
S113083033E040E050E00E945B04211580E8380773
S11308404105510510F4C90108958FEF9FE70895FC
S11308500E9480030E94EA038AB1877F8AB98BB120
S113086088608BB90E94D3010E94050278940E948B
S1130870FD030E942F020E940F022FEF81EE94E0ED
S1130880215080409040E1F700C00000F0CF97FB7A
S1130890072E16F4009407D077FD09D00E948C042B
S11308A007FC05D03EF4909581959F4F089570956F
S11308B061957F4F0895A1E21A2EAA1BBB1BFD016F
S11308C00DC0AA1FBB1FEE1FFF1FA217B307E4072B
S11308D0F50720F0A21BB30BE40BF50B661F771F83
S11308E0881F991F1A9469F7609570958095909563
S11308F09B01AC01BD01CF010895A29FB001B39F3C
S1130900C001A39F700D811D1124911DB29F700D14
S1130910811D1124911D0895AA1BBB1B51E107C021
S1130920AA1FBB1FA617B70710F0A61BB70B881F7B
S1130930991F5A95A9F780959095BC01CD0108950A
S1070940F894FFCF55
S1130944010040414C455254413A2054454D500015
S1130954494E54312044455445435441444100498B
S11309644E5420444553434F4E4F4349444100455C
S113097473706572616E646F2E2E2E00434F4E5455
S109098441444F52000043
S90305E413
